:020000040000FA
:100000000A128A11EF2F00308A000408840A82073E
:1000100000343E345134493445343E3400344234A3
:100020007F344034003442346134513449344634EE
:100030002134413445344B343134183414341234BF
:100040007F341034273445344534453439343C3416
:100050004A34493449343034013471340934053474
:100060000334363449344934493436340634493457
:06007000493429341E345E
:1007D200E83403348316031311141118F12BF22B8E
:1007E200EE2B08008316031311151119F92BFA2B9E
:1007F200F62B0800F00070088312031393008C1D7F
:10080200032C042C002C8C110800F00070088312B9
:10081200031393008C1D0E2C0F2C0B2C8C11080033
:1008220083160313860183120313860183160313AF
:1008320007148714081588130800C030F10000302F
:100842000A128A1106250A128A11F10101300A12CE
:100852008A1106250A128A110800F200F101721C9F
:10086200332C342C362C7008F1070310F00D0310D2
:10087200F20C7208031D3E2C3F2C302C710808002C
:1008820060300A128A1168240A128A1160300A1230
:100892008A1168240A128A1100300A128A11682405
:1008A2000A128A110800F1000A128A117C240A1223
:1008B2008A11831203130610881371080A128A110F
:1008C200FB230A128A118312031388170800F3000C
:1008D2000A128A117C240A128A1183120313061443
:1008E200881373080A128A11FB230A128A118312CF
:1008F2000313881708000230831203133B06031DFB
:10090200832C842C852C912C831603138711871238
:100912004030940021308312031394000230BB0054
:1009220008007308443EF50074080318013EFD3EBA
:10093200F6007608F10002300A128A1106250A1220
:100942008A117508F10003300A128A1106250A126B
:100952008A110800831203133B03031DB12CB22C2E
:10096200B32CC52C83160313871507162830831260
:100972000313940083160313910131309300940101
:10098200013083120313BB000800F4007408B03E68
:100992000A128A1154240A128A1172080F390A1291
:1009A2008A1154240A128A117208F30004300310C7
:1009B200F30CFF3E031DD82C7308103E0A128A1155
:1009C20054240A128A110800831203130819EA2C0C
:1009D200EB2CFC2C0A128A111E240A128A11831291
:1009E20003133A08F4003908F3000A128A11922418
:1009F2000A128A11052D3A08A1003908A0000A122C
:100A02008A11BD260A128A110800F2000A128A11FE
:100A1200AB240A128A110A128A11EB230A128A11D2
:100A2200D4300A128A1106240A128A1172080A1292
:100A32008A1106240A128A1171080A128A110624DE
:100A42000A128A110A128A11F3230A128A11080061
:100A5200FC00FD010530F0007C080A128A112E24E8
:100A62000A128A11013E7D0784000A128A110320AC
:100A72000A128A110A128A1168240A128A11013092
:100A8200FD0705307D02031C472D482D2B2D00301C
:100A92000A128A1168240A128A11080083160313A3
:100AA200061086108312031386100230F4004530BC
:100AB200F300A930F200F20B5C2DF30B5C2DF40B6A
:100AC2005C2D632D8312031386144130F300EE3044
:100AD200F200F20B6A2DF30B6A2D0000AE300A12FF
:100AE2008A1154240A128A11A6300A128A11542435
:100AF2000A128A11AF300A128A1154240A128A1178
:100B020008000A128A1111240A128A110A128A1181
:100B12007C240A128A110A128A114F250A128A119A
:100B22000A128A1132260A128A110A128A11E5243D
:100B32000A128A11831203133A08A1003908A0008D
:100B42000A128A114C270A128A11063083120313E1
:100B5200B8001330B700AD30B600B60BAE2DB70BF0
:100B6200AE2DB80BAE2D912D0A128A1100287708EE
:100B720078040319BD2DBE2DEB2D0130FB00CA2DCB
:100B820001300310F70DF80DFF3E031DC22D013099
:100B9200FB07F81FCD2DCE2DC12D78087A02031D3B
:100BA200D42D77087902031CD72DD82DDE2D770896
:100BB200F9027808031CFA03FA0201300310F80C58
:100BC200F70CFF3E031DDF2D0130FB02031DEA2D52
:100BD200EB2DCE2D7A08F8007908F7000800F40111
:100BE200F501700871040319F72DF82D2D2E01302F
:100BF200F600042E01300310F00DF10DFF3E031D2F
:100C0200FC2D0130F607F11F072E082EFB2D0130B7
:100C12000310F40DF50DFF3E031D092E710873023A
:100C2200031D152E70087202031C182E192E202E79
:100C32007008F2027108031CF303F302741401300A
:100C42000310F10CF00CFF3E031D212E0130F602C1
:100C5200031D2C2E2D2E082E7508F1007408F000AD
:100C62000800831203130718372E382E542E04302F
:100C72003A023830031939020318402E412E472E0A
:100C82000130B9070318BA0A0030BA070630F20079
:100C92001330F100AD30F000F00B4D2EF10B4D2E64
:100CA200F20B4D2E542E831203138718592E5A2EEF
:100CB200762E03303A026C3003193902031C622E7D
:100CC200632E692E0130B9070318BA0A0030BA0739
:100CD2000630F2001330F100AD30F000F00B6F2E51
:100CE200F10B6F2EF20B6F2E762E08000030FC00F7
:100CF2000030FB000030FA000030F900701C822E38
:100D0200832E9A2E7408F907750803110318013E01
:100D120003198C2EFA07760803110318013E0319F2
:100D2200932EFB07770803110318013E03199A2E2D
:100D3200FC070130F8000310F40DF50DF60DF70D68
:100D4200F80B9C2E01300310F30CF20CF10CF00C9A
:100D5200FF3E031DA42E7308720471047004031D68
:100D6200B32EB42E7F2E7C08F3007B08F2007A08A3
:100D7200F1007908F0000800831203132008F00044
:100D82002108F100F201F3010030F7000130F60012
:100D92008630F500A030F4000A128A1177260A1272
:100DA2008A11730883120313AD007208AC00710834
:100DB200AB007008AA00A030A200BB30A3000D3027
:100DC200A4000030A5002A08A6002B08A7002C08C2
:100DD200A8002D08A90002300310A60DA70DA80D2A
:100DE200A90DFF3E031DED2E2608A20727080318B2
:100DF200270FFC2EFD2EA30728080318280F022F09
:100E0200032FA40729080318290AA5070F30031086
:100E1200A50CA40CA30CA20CFF3E031D082F230853
:100E2200B4002208B3003408AE003F30AE053308E8
:100E3200AF00B030B0001030B100B2010A128A1116
:100E4200AB240A128A110A128A11EB230A128A119E
:100E5200C0300A128A1106240A128A11831203135D
:100E6200B50135082E3E8400831300080A128A1148
:100E720006240A128A11013083120313B5070530C2
:100E82003502031C452F462F322F0A128A11F323F3
:100E92000A128A110800F20100300A128A11C624CD
:100EA2000A128A110330831203132102E830031954
:100EB2002002031C5D2F5E2F7F2F0A30F7000030C7
:100EC200F800E830F0000330F1002108F3002008B8
:100ED200F2000A128A11F0250A128A117108FA0028
:100EE2007008F9000A128A11B8250A128A117708C5
:100EF2000A128A1129250A128A11902FA2010030A2
:100F02000A128A1168240A128A1101308312031309
:100F1200A20706302202031C8F2F902F802F0A3047
:100F2200F7000030F8006430F0000030F100831266
:100F320003132108F3002008F2000A128A11F02597
:100F42000A128A117108FA007008F9000A128A114D
:100F5200B8250A128A1177080A128A1129250A125B
:100F62008A110A30F7000030F8000A30F000003031
:100F7200F100831203132108F3002008F2000A1281
:100F82008A11F0250A128A117108FA007008F90014
:100F92000A128A11B8250A128A1177080A128A11CE
:100FA20029250A128A110A128A1141240A128A1167
:100FB2000A30F7000030F800831203132108FA0008
:100FC2002008F9000A128A11B8250A128A11770834
:100FD2000A128A1129250A128A1108000A128A1194
:100FE200E9230A128A11B9000A128A11EA230A12A3
:0E0FF2008A11BA00BB0183010A128A11822DF6
:02400E003A3F37
:00000001FF
